:040000006F10507CB1
:10000400000000000000000090000020C202002058
:10001400A9BDF9F5780300200000000000000000ED
:100024007803002090000020000000000000000081
:10003400900000200000000090000020000000005C
:1000440090000020900000209000002090000020EC
:1000540090000020240800209000002000000000F0
:1000640090000020900000209000002090000020CC
:10007400DE0300209000002090000020900000206B
:1000840090000020900000209000002090000020AC
:1000940001A04111B7170040985F3AC6945F3247F8
:1000A400E39CE6FE324541018280B7F70700011167
:1000B400944B13078008F337078093F787083EC2F1
:1000C4000F100000B71700401308700523800705C0
:1000D400930580FA2380B7040F10000003C6B70409
:1000E4001376F60DA385C7042380070412467326EE
:1000F40006800F1000001376050255CEF3360780F4
:1001040093F6860836C40F10000023800705238069
:10011400B7040F100000B70614007D89558D88C7F9
:10012400010001000100010023800704A246F3A698
:1001340006800F10000073370780137787083AC6CC
:100144000F100000238007052380B7040F10000060
:100154000F1000003727004093061005A303D78033
:1001640023800704B247F3A707800F10000093070A
:100174008008F3B7078093F787083ECE0F1000007E
:10018400B7170040130770052380E704130780FAAC
:100194002380E7040F10000003C7B70413670708A0
:1001A400A385E70423800704F247F3A707800F1011
:1001B4000000056182801376050459C273360780F6
:1001C4001376860832C80F100000238007052380A9
:1001D400B7040F10000037061400130606047D89C7
:1001E400518D88C70100010001000100238007042C
:1001F4004246732606800F1000007337078013777A
:1002040087083ACA0F100000238007052380B7042B
:100214000F100000A54793F6F60F639EF600B7276C
:10022400004013073005A383E780B71700402380FD
:100234000704D2470DBFB727004013072005E5B7D1
:1002440073370780137787083ACC0F100000238098
:1002540007052380B7040F10000098471367070CA5
:1002640098C723800704E247FDBD0111814601467A
:100274008145114506CE912493078008F3B7078082
:1002840093F787083EC60F100000B7170040130706
:1002940070052380E704130780FA2380E7040F1016
:1002A400000003C76704136717002383E704238050
:1002B4000704B247F3A707800F100000F24005615E
:1002C400828041118146014681451145FD22130773
:1002D4008008F337078093F787083EC40F100000A7
:1002E400B7170040130670052380C704930680FAED
:1002F4002380D7040F100000FD552396B7022380F6
:100304000704A245F3A505800F100000733707808A
:10031400137787083AC60F1000002380C704238090
:10032400D7040F10000003C7670413671700238363
:10033400E70423800704B247F3A707800F100000E7
:1003440001A0BD473305F50201007D1575FD8280CE
:10035400411122C426C206C6AA840144631794002C
:10036400B240224492444101828005041305803E38
:100374004204C13F4180DDB79305000273A045806C
:1003840082457390153492402242B2424243D24392
:100394006244F244025592552256B2564257D257FD
:1003A4006258F25806499649264AB64A464BD64BF5
:1003B400664CF64C065D965D265EB65E465FD65F7D
:1003C4000961730020304111B7170040985F3AC6A5
:1003D400945F3247E39CE6FE324541018280B717C1
:1003E4000040130700032388E702854723AEF18CFE
:1003F40073002030411106C6EF00007FF5BF2303D0
:10040400048015472303E48001002302A480828032
:1004140083076480E3CE07FE23030480828083077E
:100424006480E3CE07FE03454480828083076480B2
:10043400E3CE07FE2302A4808280411126C44AC26F
:100444004EC006C61377F50BAD47AA892E8995448D
:100454006306F70019456537653F8D444E8545377A
:10046400FD59FD1463983401B240A24412498249F3
:1004740041018280135509011375F50F453F220987
:10048400CDB7011126CC06CEB70408005137154567
:10049400BD37713769372AC6A53F324593771500B2
:1004A40089EB136515001375F50FF240E2440561FD
:1004B4008280FD14E9FC0145CDBF397126DC4ADA9E
:1004C4004ED852D656D45AD25ED006DE62CE66CC10
:1004D400B7E700E07D5783AA070022C603AA4700B6
:1004E40023A0E71823A2E718B717004013077005E5
:1004F4002380E704130780FA2380E70483C74704B3
:10050400930B75FFB684E20793FBFB0F8546AA891C
:100514002E8B328937240040E187015763FA760134
:100524006308D5008946130700026313D5000157F9
:10053400D98F93F7F70FB71C00402382FC041147AF
:100544002303E4801305F00F5D3D094CD135636D41
:100554007C11B7050700DA9537870700795563F2F0
:10056400E504B3879500636EF702370B0800A947CB
:1005740033EB65016399F90689E48144513D26858D
:100584000DA0DA850945553D05090345F9FFFD141C
:10059400050B693D81C49377FB0FFDF7DD3569FDDC
:1005A4007D55B7170040130770052380E704130730
:1005B40080FA2380E70403C74704418B2382E704BE
:1005C400F250B7E700E023A0571123A24711E254E9
:1005D40032445259C259325AA25A125B825B724C4B
:1005E400E24C21618280A5476395F9068569130968
:1005F400F00FB3069900B3742B01B6941349F9FFB5
:10060400B3749900856B33796901416B9387F9FF62
:10061400B3F7270199E363FC340193D94900C14737
:10062400E3E637FF99BF0569C1697D19D9B7130599
:10063400800D638869011305000263847901130541
:100644001008CA85DD3B353D21DD4E99B384344124
:10065400D9B7DA852D45D533CA94E30099F2050953
:100664007D3BA30FA9FED5BF9387F9FF93F7F70F3F
:100674006361FC0C83C71C0413073008631FF70471
:1006840037070800636BEB04B3079B00B706100041
:1006940063F5D704334BEB0089476393F9068980EC
:1006A400D549E38C04ECDA850945413B110903275C
:1006B400C9FF91472320E48003076480E34E07FECB
:1006C40023033481FD17EDFBFD14110B81C49377D3
:1006D400FB0FE9FF7D3371F5E1B5B717004003C7A0
:1006E4005704B70708001377070219E3B787070011
:1006F4007955E378FBEA33079B00E3FFE7F855B548
:100704008547E382F9F2DA852D45053B9389F4FFA9
:10071400E38504E6293393F7390091EB83260480BB
:100724000327090093074900E39AE6E43E89CE844F
:10073400F1BFB5476396F9001305900BC93135BD78
:10074400B1471305B00AE38BF9FE99476391F904A5
:10075400B7050800B365BB002D45C53181448D4BF9
:10076400A149753963967401832704802320F90015
:100774008504E39834FF8327048013172B01635502
:1007840007002312F900D5BB2322F900FDB39D47CE
:100794006399F90281451305B0044531BD44232012
:1007A400090023220900FD599D3993F77400CA9763
:1007B40003C70700FD14398D2380A700E39634FF97
:1007C4006DBBA1476392F9046D398144630D0B003D
:1007D4008D479304C0036308FB009304000563047E
:1007E4008B01930440041375C507E30895D8194594
:1007F400393139390545213126850D3909453D31D0
:100804004931E31C05D669BB91476399F900130587
:100814006006F536F53E130590090DB7E38F09D44C
:10082400F154A9BB197106C212C416C61AC81ECA4D
:1008340022CC26CE2AD02ED232D436D63AD83EDA9C
:1008440042DC46DECAC0CEC2D2C4D6C6DAC8DECACC
:10085400E2CCE6CEEAD0EED2F2D4F6D6FAD8FEDA7C
:100864009385418D8841E700050092402242B242BF
:100874004243D2436244F244025592552256B25640
:100884004257D2576258F25806499649264AB64A00
:10089400464BD64B664CF64C065D965D265EB65EC0
:1008A400465FD65F096173002030B7E700E09843E4
:1008B400B706200023A0D718758F0F10000001C5BC
:1008C40099C1814711E6B7E700E023A0E7108280D1
:1008D400B386F50003C80600B306F5008507238038
:1008E4000601E317F6FEC5B737E700E01C43B70679
:1008F40020002320D718F58F0F10000019C191C1D3
:1009040011E637E700E02320F7108280910503A762
:10091400C5FF11057D16232EE5FEDDB737E700E0A0
:100924001C43B70620002320D718F58F0F100000B2
:1009340001C53307C50011E637E700E02320F710AF
:1009440082800505A30FB5FEE31DE5FEF5B7B7E705
:1009540000E09843B706200023A0D718758F0F1026
:1009640000008147B306F5008386060099E6B7E6E2
:1009740000E023A0E6103E8582808507E5B737E7CF
:1009840000E01C43B70620002320D718F58F0F1072
:10099400000001C599C1014711EA37E700E02320AF
:1009A400F710054582800507E309E6FE3308E500F4
:1009B400B386E5000348080083C60600E305D8FEB5
:1009C40037E700E02320F7100145828037E700E095
:1009D4001C43B70620002320D718F58F0F10000002
:1009E4001307F6FFBA952A966317C50037E700E0A8
:1009F4002320F7108280FD1503C715000505A30FFA
:100A0400E5FEDDB737E700E01C43B70620002320EE
:100A1400D718F58F0F10000001C53307C50019E67C
:100A240037E700E02320F71001458280050583465F
:100A3400F5FFE397B6FEE31BE5FE37E700E023206E
:100A4400F710054582807971973700009387875D99
:100A540022D4804306D626D24AD04ECE52CC56CA91
:100A64005AC85EC669C037C9C901014B973900002D
:100A74009389C95A1309F937173A0000130ACA5A55
:100A8400973A0000938ACA54973400009384845E92
:100A94008357240095E35C44631D0B001737000063
:100AA4002322F758832BC4002285EF00F0225E84B2
:100AB400A9A82326FB00FDB783A7090082971C443D
:100AC4003307F5406375F500D8401D8F2A9763619D
:100AD400E9089737000023A50750835524000345F0
:100AE4000400974000E0E78000215C405844B9C707
:100AF4000C44D040AE97BE8663E4B70063E4C700FD
:100B0400B386C74014C4228B3A8459F09737000047
:100B14009387074C9C4B09476373F708F9171737FA
:100B24000000232FF74AB250225492540259F2493A
:100B3400624AD24A424BB24B4561828063170B0032
:100B44009737000023A0E74EB1BF2326EB0099BFDF
:100B540003274A021DCF63E1A7043385A7408347D7
:100B6400040085E3173700000347774D5917B3078F
:100B7400A7003E85D44063E4E70063E4D7003385EF
:100B8400D74083A70A016376F5009737000023A9AD
:100B9400A744228B404495BFD840BA977DBF97376E
:100BA400000023AF074241B7973700009387074CF3
:100BB4009C4385C3411106C682979737000083C7BB
:100BC400C74589E79737000023A2074AB24041018D
:100BD40082809737000083C7474491E79737000026
:100BE40023A6074882808280411122C41734000062
:100BF4001304C4401C4006C626C24AC091C782974B
:100C04009737000023AC073E9737000083C7D75FB0
:100C1400858B173900001309E95E89CF8347790072
:100C240019476312F71097370000A38F075C3D2321
:100C34005C4482971C4491C3829797340000938448
:100C4400243E984017360000034696389737000034
:100C540083C7073893961700BA9683D60600E5C271
:100C64009737000083C7C73663E5C70E9737000080
:100C7400238007361C40639E071497370000938730
:100C8400E7399C4363870714973700009387873EAF
:100C9400DC43173700002325F734753397370000FA
:100CA40083C7F756639707129737000083C7175611
:100CB40091CF8347790093F7F70F89EB97370000BB
:100CC400A3860754974001E0E780007C9737000033
:100CD40093878735DC53638E070E9737000093871D
:100CE400272F9C4BFDC78347790015476363F70E95
:100CF4009737000083C78756918BE1EF9737000041
:100D040083C7A731F9E790409736000083C6562C75
:100D140063C7D70C2244B2409244024941011743AD
:100D240000E06700035F834779001D47E314F7F091
:100D340097370000A38A074C15211C48DDBD8507A1
:100D440093F7F70F973600002384F628E3E0C7F003
:100D540001BF86073E978355070023100700973786
:100D64000000239B072A973700009387E7289C43BA
:100D7400173500000345C52513172500BA979C4372
:100D840082979737000083D7272917370000034736
:100D9400272493C7F7FF7D8D9317170098403E973C
:100DA400835707005D8D2310A7009737000083C782
:100DB400272291C7850717370000230BF720173721
:100DC40000000347E7209737000083C77720E37FBD
:100DD400F7E8B240224492440249410182801397C9
:100DE40017003297035707006DF7850715B737C704
:100DF40000408326C720B707FCFFFD17F58F232685
:100E0400F72001000100973700009387671CC84F43
:100E1400832787262326D7206A0593C7F7FF99835C
:100E24005D8D82800111973700009387274F22CC74
:100E340003A4070C26CA06CE2AC42EC6854419E488
:100E44000145F2406244D2440561828083479100A7
:100E540003471400858B6304F7000044CDB719469B
:100E64009305A10013052400193EE31895FE0545DA
:100E7400C9BF0000EFF05FD3730000000000000062
:100E840097320000938262190383020023800200D8
:100E9400630F0300F32510342EC0970500009385DB
:100EA400A5FD73901534EF00204E7300203086DCCE
:100EB400EF00804DE65082800000173700001307D2
:100EC40027341443411122C49C5E4AC006C6998348
:100ED40026C2858B3A841739000013092932D1CBF5
:100EE400930700069CDE1737000003470732930779
:100EF4000008973400009384E430631BF7008327D1
:100F040009009C4393F7070417370000230FF72EBB
:100F140083C7040093F707049DC3973700009387A2
:100F2400E70F9C4382979737000023ABA72E83C714
:100F3400040093F7F70B173700002305F72C83C73A
:100F4400440093F7070495E7854717370000A30D7E
:100F5400F72A973700009387672D9C4337070200D1
:100F640098C7130700FC97360000238FE62898489B
:100F7400F8D318401C5F9183858B8DC31C5F93E766
:100F840007011CDF973700009387472A9C4323A25D
:100F940007068547173700002308F726832709002B
:100FA400D8430583058B19C7D843759BD8C3D84349
:100FB400799BD8C3B24022449244024941018280C1
:100FC400ED3D730020309317D50063D307029737A4
:100FD40000009387A7259C437D57B8D79737000017
:100FE400938707FFDC4F8507173700002320F7009E
:100FF400937785009DCB9737000083C7C72093E77D
:101004001700173700002300F720930700F817375D
:101014000000230BF71E973700009387671E984341
:101024005C57F19B93E717005CD7937715008DC746
:101034009737000083C7171D93E717001737000081
:10104400A302F71C973700009387871B98435C57CC
:10105400F19B93E717005CD79377650095CB937763
:101064004500173700001307E719CDCB8347070066
:1010740093E71700173700002306F7189737000087
:101084009387071898435C57F19B93E717005CD745
:101094009317F50063D40702173700000347872F1F
:1010A400418B973700009387672751C383C787070E
:1010B40093E7070217370000230EF72C9317E50078
:1010C40063D707029737000083C70714E207E18755
:1010D40063D707008547173700002307F7129737B0
:1010E40000009387A7149C433707020098C79317FF
:1010F400C50063D40702173700000347B729058BDF
:10110400973700009387872129C383C7970793E7FD
:10111400270017370000A30FF72682808347370084
:1011240093E7170017370000A30FF70C81BF03C71D
:10113400870789463D8B6308D70083C787070D4718
:10114400BD8BE39DE7F69147B5B703C79707118BAE
:1011540069D783C7970793E7870065BF9737000070
:101164009387C70C9443973700009387A70903C755
:101174000700058B11CB97370000238707089737A3
:101184000000A3830708828003C71700058B65F757
:10119400F85271FF83C75700DDB7173700001307F4
:1011A400270603280700832788039583858BADEFE3
:1011B40011C683270803BD832300F6009DC61C4384
:1011C400985B4607935767016356070093E707C088
:1011D400C207C18303970600C207C18709C7BA972C
:1011E4000947B3C7E7022390F6008DCD8345150068
:1011F40095C99737000083C7470193F707041387FE
:101204009500894585C33A95834705000547994567
:1012140093F6F7066398E600E207E187814563D316
:101224000700B9452E8582808545EDBF411126C250
:1012340006C622C497340000938444FF3DED9440D5
:10124400AE87F8527DFF37F400E03E859737000003
:10125400238B07FA832704D1B285ED9B2328F4D08E
:10126400832704D193E787022328F4D07300501016
:10127400974001E0E780A00897370000938747F87C
:101284009C43B70680009843558F98C3D857719BE9
:10129400D8D797370000A38907F697370000A383B0
:1012A40007F69C40094798C3832704D193E7870036
:1012B4002328F4D0730050100DA08D476315F50456
:1012C400973700009387C7F39C43B7068000984381
:1012D400558F98C3D857719BD8D7944017370000BF
:1012E400130747F283472700858B89EB8347370031
:1012F400858BC1CB97370000238807F0B240224486
:101304009244410182808547E319F5FCB7F700E078
:1013140003A707D16D9B23A8E7D003A707D11367C1
:10132400870223A8E7D07300501098408177FD17F7
:101334005447F58F5CC70F1000009840B7070200B0
:101344001CC7930700F817360000230FF6EA9737F7
:1013540000009387E7EA9C439C439D83858B639FAE
:10136400A700930760197CD354C737F700E083279D
:1013740007D193E787002328F7D02DBF9307E01BFD
:10138400DDB7FC52A5F39DBF97370000938707EAAA
:101394009C438847D847798D09C988C793870197A3
:1013A40003A30700630303000283828097370000CE
:1013B4009387C7E798438967938707F47CD3973764
:1013C40000009387E7EB9C4383A607091396560016
:1013D4006358060083A60709139666006344060053
:1013E4007453FDF282804111B7E700E022C48043C8
:1013F4003707200006C6798C23A0E7180F100000D9
:1014040011C199E5B7E700E023A0871001457DA845
:1014140093073500C207C183F19BC207C183130739
:1014240040036369F702173700001307A7EE084368
:1014340017370000130787ED14436392A60217378A
:101444000000130767BE185B55DFC207DD8D054535
:1014540002974DBF17370000130787EBC9BF035727
:1014640065002DEB035745006366F706B306F740A6
:101474002146637CD60203280500938687001D8FCE
:10148400AA966117173600000356E6B42392E600C5
:1014940023A006012393060014C12312F5001307A9
:1014A40086FF973600002398E6B22313B5009735DC
:1014B400000083D545B2B387F54017370000231CDD
:1014C400F7B0B7E700E023A087102105B24022441B
:1014D40041018280084195B7B7E700E08C433707A4
:1014E400200023A0E718F98D0F10000001E523A0C8
:1014F400B7108280973700009387C7E103A30700E2
:1015040097370000938787E083A8070081469A876E
:1015140063F2170D03A807006361F50C636FA80A53
:10152400138787006368E50A03D667002167050708
:101534006317E60003C7819605072384E1961735F0
:1015440000001305E5A803D647000357650023935D
:101554000700329742074183173E0000231DEEA681
:10156400638C670217330000130383DA0323030039
:101574006304F30203D366006310030283D74600B7
:1015840023A0060121073E9621062392C600973721
:1015940000002392E7A4B6879843630D1703973698
:1015A40000009386E6D694426306D702835667000A
:1015B40095E283D64700035647001843A106B29626
:1015C4002392D70098C383576500A10717370000FB
:1015D4002313F7A0B7E700E019BFBE86C2870DBF8B
:1015E40003278511630407120346E5048546630057
:1015F4000612411122C406C68347C5002A8493F704
:10160400C70F2306F500834597000358C7001395B9
:1016140085016185637006096359050603458700E2
:1016240093F5F507A304B70093E527006314D500E9
:1016340093E517002306B4005C4389075CC3A30A3F
:10164400C400032504114C430905EFF00FA68327BA
:10165400841103465401D44303D7C700B296118FB3
:10166400D4C32396E7008947A30DF400034764031A
:101674009737000083C7679C6377F7048347C400E8
:1016840093E707012306F4003DA893E71700230618
:10169400F40075B71376F80F635D05020345870000
:1016A40093E527006314D50093E517002306B400DF
:1016B400A30AC400A30407008547A30DF4008327ED
:1016C40084119C43C5F7B2402244814636854101CA
:1016D400828093E717002306F400A30AC400A3043E
:1016E4000700032504114C4342860905EFF0EF9BE4
:1016F4008327841103465401D44303D7C700B29609
:10170400118FD4C32396E7008D4745BF85463685A0
:10171400828097370000938727D39C43411122C4CA
:1017240006C6858B2A84C5EF4165130525F5970008
:1017340002E0E780E03545C58347A5002315F500A1
:1017440083270412BDE72320A4122322A412854771
:101754002311F40423200500834764015441231614
:10176400F5000347D4002304E5000547A304E5007E
:1017740017370000130707A958531385170215815B
:101784001C437D151375F50F9CC25C43DCC21C47DA
:101794009CC65C47DCC61C4B9CCA5C4BDCCA1C4F19
:1017A4009CCE5C4FDCCE19CD93860602130707024C
:1017B400C1BF8327441288C3835724042322A4125D
:1017C400850779B79737000083D7C7B585071737DB
:1017D40000002319F7B4B2402244410182808347B8
:1017E400C40023090400054593C747002306F400F9
:1017F400DDB78347850193F7E70FD5EF834795015D
:10180400DDEB034625018346C50009CA834565030C
:10181400173700000347778263E7E50013F70601F3
:1018240041CF014709C6C18A0357651C81C6835647
:10183400A51C369751C31307C7121735000003556B
:10184400E583B335A70237460F004111130606247A
:10185400814622C426C206C67D543305A7029730AA
:1018640002E0E78000FF9727000083C7577DB38419
:10187400A70097370000938767AA03A787098327E0
:10188400070963F387003E84184375FB972700001C
:101894009387C7789C43829781476364A400B30706
:1018A400A440B2402244B3B7970093C717009244B0
:1018B4003E854101828081473E85828097370000C2
:1018C4009387C79698433C5BFDFF0100010082802B
:1018D400011122CC4AC84EC606CE26CA52C456C2EC
:1018E4005AC00347B50085472A842E8983290509F0
:1018F4006311F72683570508835AC503172A000086
:10190400130A4A77172B0000035B4B7763FB5721BD
:10191400834605016397E620032785116313072097
:101924000327450A631F071E8346F5001D47639A74
:10193400E61E03471401B38AFA4013950A01418154
:1019440021CF9377170099CB8357E405835604047A
:10195400958F63D5A70013950701418193772700DD
:1019640099CB8357E41283560404958F63D5A7005B
:101974001395070141819377070199CB8357C414C9
:1019840083560404958F63D5A700139507014181FD
:10199400218B11E311E105450357A4039307204E5E
:1019A400832444093305A70237460F0081461306F2
:1019B40006243305F5029727000083C74768B3540C
:1019C4009502B335AB02BE94C204C18023139408BC
:1019D4003305AB02973002E0E780A0E7B307350197
:1019E40033B5A7002E953E8783264A0019E163E4A8
:1019F400D7003387D740B3846403B7460F00938777
:101A0400F623938606242320E900A697B3D7D702AA
:101A1400D6976362F7101D8F2320E90097290000F1
:101A24009389C95F83A7090083240900829763E52A
:101A3400A4123385A4406354050C83A7090082973C
:101A4400032709006361E512198D8357E4031727FF
:101A540000000357A7628E07B387E702130700321B
:101A640093870719B3D7E70263E7A710374A0F0034
:101A7400130BFA23972A0000938ACA5F130A0A24D5
:101A84008357040485072310F4048347041499E35B
:101A940022855922228597F001E0E780E0F275E97A
:101AA400832604098327C40803A74A00B6973E8502
:101AB40063E4D70063E4E7003385E7408347F40138
:101AC400835464082328A4088507A30FF4009727E8
:101AD400000083D7A75AB384F402DA94B3D444033E
:101AE4006368950CB304954083A7090023209900EB
:101AF400829763E3A40C3385A440E34305F8972756
:101B0400000083C7D75363E7A7089737000023A7CC
:101B1400878A014541A083264A00B387F6403E9751
:101B2400E5BD8354640837470F009307F723B38454
:101B34006403BE9493070724B3D7F40263E7F90060
:101B4400B387F9402320F900D1BD03274A00BA998D
:101B5400C5BF23A03501D9B59727000093878751C6
:101B6400DC43BE94F9B5972700009387A750DC4364
:101B7400998F3E95D9BDA145228597F001E0E78074
:101B840080DDA305A402972700009387E7499C5BA7
:101B940081EF7D55F2406244D2444249B249224A1F
:101BA400924A024B05618280894515458297D5B7D3
:101BB400B3049740AA940DBF83A74A00BE9425BFDF
:101BC40039C901116C0022CC06CE2A8411331DCDF3
:101BD400FD576302F502B2479725000083C53546D9
:101BE40063EFB70003459402B385B7402EC6973020
:101BF40000E0E780E027F240624405618280172715
:101C04000000130727475843BA97E9BF970002E03B
:101C1400E7800099CDB78280797126D206D622D486
:101C24004AD04ECE52CC56CA5AC85EC683475503D4
:101C340003447513AA843E941374F40F930740026B
:101C440063F687001304B4FD1374F40F03AA84131A
:101C540083AAC413A38B841222865285D685972027
:101C640002E0E780007C058915E503CBD412014925
:101C74008149337B6403930B50024A865285D6858F
:101C8400972002E0E780E079058915C5639169032F
:101C94001374F90F238B8412B250225492540259B4
:101CA400F249624AD24A424BB24B4561828085096D
:101CB400E20993D989410509E31179FDE1BF83273D
:101CC400850903560504797193D60701BD8EC206B2
:101CD400C182358E1357764093575640898B058BB6
:101CE4005D8F93573640918B5D8F93571640A18B30
:101CF4005D8F93171600C18B5D8F9317360093F792
:101D040007025D8F931756009355860093F70704D7
:101D14001E065D8F1376F60F518F93D7554013D659
:101D24003540118A898BD18F13D67540D18F13D644
:101D34001540218AD18F13961500418AD18F1396AD
:101D4400350013760602D18F1396550013760604D8
:101D54009E05D18F93F5F50FCD8FA20745465D8F74
:101D64003307C70222D42A8426D252CC56CA032A65
:101D74008413832AC4135AC806D63697420741836C
:101D840093577740135557400989858BC98F13554D
:101D940037401189C98F135517402189C98F1315ED
:101DA40017004189C98F1315370013750502C98FB0
:101DB4001315570093558700137505041E07C98F23
:101DC4001377F70FD98F13D5354013D755401189A1
:101DD400098B498F13D57540498F13D51540218937
:101DE400498F139515004189498F13953500137553
:101DF4000502498F13955500137505049E05498FF7
:101E040093F5F50F4D8F2207D98FB387C7024AD0B8
:101E14004ECE5EC662C4B697C207C18313D777405D
:101E240013D557400989058B498F13D5374011893C
:101E3400498F13D517402189498F1395170041897C
:101E4400498F1395370013750502498F1395570071
:101E540093D58700137505049E07498F93F7F70FF1
:101E6400D98F13D5354013D755401189098B498F24
:101E740013D57540498F13D515402189498F139582
:101E840015004189498F1395350013750502498F53
:101E940013955500137505049E05498F93F5F50FA9
:101EA4004D8F2207D98FB387C7021306500252857C
:101EB400D685B697BD8E93940601C18033F6C402CD
:101EC400137BF60F972002E0E780A05505890DEDFE
:101ED4008347D41201498149B3849702130C5002F9
:101EE400C1804A865285D685972002E0E7806053F8
:101EF4000589937BF90F11C563863403850993F92A
:101F0400F90F0509E31F89FD230B6413B250225412
:101F140092540259F249624AD24A424BB24B224C81
:101F2400456182805E8BCDB70111972700009387AE
:101F3400E73E22CC03A4870C26CA4AC84EC606CE66
:101F4400AA8413092500854915C083C714000347D3
:101F54003400858B6304F700405CFDB71946930594
:101F640044004A85EFE0BFA1E31835FF2285F24023
:101F74006244D2444249B2490561828041119727A3
:101F840000009387A73922C403A4870C26C24AC041
:101F940006C693042500054901E82285B24022447F
:101FA4009244024941018280A6851305A402971038
:101FB40002E0E780A0BDE30225FF405CF1BF000022
:101FC400971100209381C1D7175100201301418339
:101FD4001305400097E5FF1F93858502170600202F
:101FE400130606FE63FAC5008322050023A05500EC
:101FF40011059105E3EAC5FE175502001305C5AFA7
:10200400970500209385C5FB1386818863FAC50074
:102014008322050023A0550011059105E3EAC5FEBE
:102024001385818897250020938545436377B50000
:10203400232005001105E36DB5FEFD42739002BC3B
:102044008D4273904280930280087390023097E22D
:10205400FF1F9382E2FA93E2320073905230972288
:1020640000009382C25673901234730020303D43B3
:102074002A876373C3029377F700BDEFADE59376C8
:1020840006FF3D8ABA960CC34CC30CC74CC7410724
:10209400E36BD7FE11E28280B306C3408A0697023F
:1020A400000096966780A6002307B700A306B70032
:1020B4002306B700A305B7002305B700A304B700A0
:1020C4002304B700A303B7002303B700A302B70098
:1020D4002302B700A301B7002301B700A300B70090
:1020E4002300B700828093F5F50F93968500D58D74
:1020F40093960501D58D61B793962700970200004A
:1021040096968682E78086FA9680C1171D8F3E9642
:10211400E374C3F8A5B7B717004003C7770513776F
:10212400E70FA38BE704130700F8A38DE7043D47EB
:10213400238CE70413075003A38CE70403C7A70504
:102144001377D70F238DE7048280B717004003C7A6
:10215400E7020D8941111377C70F498F9306800851
:10216400F3B6068093F6860836C60F100000930671
:1021740070052380D704930680FA2380D7040F10B8
:1021840000002387E70223800704B247F3A70780F0
:102194000F1000004101828041112A83014E930EE9
:1021A400407E130F0019930F400663E56E129308E7
:1021B400001913034006B3781503854E0D4FA14F44
:1021C400337365020D891335150063EFBE121308CE
:1021D400F6FF794672984208135808013307C7027C
:1021E40013D61700BE0732976146B3F6C60213062C
:1021F4008070B386C6023697A166F58F42075D8F5D
:10220400B716004083C7F60293F70708A303F1004B
:102214000346710083C7F60293F70708E394C7FEE9
:1022240083477100B716004093F7F70F63880712CE
:1022340093078008F3B7078093F787083EC40F100D
:102244000000B7170040930670052380D704930657
:1022540080FA2380D7040F10000023AA070383C643
:10226400170393E60608A388D70223800704A2472E
:10227400F3A707800F1000001166B71700407D1602
:10228400D45BC85F93854703A98EF18EF5FA930654
:102294008008F3B6068093F6860836C60F10000051
:1022A400930670052380D704930680FA2380D7040D
:1022B4000F10000098C103C7170313670704A3880E
:1022C400E70223800704B247F3A707800F1000003A
:1022D400410182807D133368E3039308E016630EA3
:1022E40008003368F3039308D01663080800937852
:1022F400330093B818009388D81633081E01131EB0
:102304000801135E0E0155B56393E5030548638622
:1023140008000148630303002A8871087298FD15B8
:10232400131E0801C205135E0E01C18179BD13F8A5
:10233400150063F4BF007908D5B713381800E5BF5A
:1023440083C7F60293F70708A303F100034671005D
:1023540083C7F60293F70708E394C7FE8347710027
:1023640093F7F70FF1DFE9B531714AD966CB06DF90
:1023740022DD26DB4ED752D556D35AD15ECF62CD5D
:102384006AC96EC7AA8C02D8EF00901C2A899307E9
:102394008008F3B7078093F787083EDA0F10000030
:1023A400B7170040130770052380E704130780FA6A
:1023B4002380E7040F10000003C7F7021377770F99
:1023C400A387E70203C7F70213678700A387E7021F
:1023D40023800704D257F3A707800F100000054598
:1023E400AD33130780C13347E902116A93070AE842
:1023F40093065002BD69930BA004814A014B130458
:102404008008930470057D1AB347F9023307D70295
:102414003EC0FD873ECC938709A69309803E33478F
:10242400F7023AC27D873AC4334739038549B399E1
:10243400990193D93940B306D702B30B7703B3C6D6
:10244400F602B3CBFB0236C6FD8636C893D6FB41F3
:1024540036CEB7460F00938606243349D9028566E3
:10246400938606FAB3969601B389E9021307605579
:102474003309D90293060010B389E9023349D9021A
:10248400B3C9F9029316390036CA37190040FD86DC
:1024940036D0930D090493D7F9413ED2F336048024
:1024A40093F6860836DC0F1000009307700523802E
:1024B400FD00930680FA2380DD000F1000008346A0
:1024C400390593F6860FA309D9048346390593E6A3
:1024D4001600A309D90423800D00E256F3A6068052
:1024E4000F100000130C80FA116DF336048093F67C
:1024F400860836DE0F100000930770052380FD0068
:1025040023808D010F10000083463905216693E670
:102514000602A309D90483560905B3E6A6012318C4
:10252400D90483560905D18E2318D90423800D00BC
:10253400F256F3A606800F1000008346390593F681
:102544000602638A061803463905218A6DDE0818D7
:10255400EF0010047336048013768608B2C20F109D
:10256400000023809D0023808D010F100000B71709
:10257400004003C637051376F60DA389C70403C6C6
:10258400370513660602A389C70483560905216625
:10259400B3E6A6012318D90483560905D18E23185E
:1025A400D90423800D009646F3A606800F10000080
:1025B4008346390593F60602638606148346390575
:1025C400A18AEDFE97E0FF1FE780A0ACAA8636D46F
:1025D40097E0FF1FE780E0ABA256E30AD5FE8356DF
:1025E40009054255B3E6A6012318D904D127834629
:1025F4003905A18AEDDE035609058346290582477C
:102604003376CA00B306DA0293D5F641B296B3889C
:10261400F640E24733B8C6002E983308F840A24784
:10262400B3B616013308D84063C70701631DF80029
:10263400924763FA1701C247634DF80E6395070189
:10264400B24763E8F80E894663E7660FF2469315CE
:10265400180013D3F8015E8613951800B365B30010
:1026640042D646D4EF10F2603258050B137BFB0FB1
:102674006347000163120838A258638F08361308B1
:102684001500B336A800B69513D6F5013298B336C3
:10269400C800AE9613581800FE06B3E6060173365A
:1026A400048013768608B2C60F10000023809D00B4
:1026B40023808D010F1000000356C902B296C20692
:1026C400C1822316D90223800D00B646F3A60680E4
:1026D4000F10000019BDF336048093F68608B6C0C7
:1026E4000F10000023809D0023808D010F10000037
:1026F4008346390593E60602A309D90423800D0015
:10270400864605BDF336048093F68608B6C40F10DA
:10271400000023809D0023808D010F10000083465C
:10272400390593E60602A309D90423800D00A646C1
:10273400A5BDE30D0BF0F336048093F68608B6C806
:102744000F100000930680FA23809D002380DD0093
:102754000F1000008346390593F5FC0F93F6860F9E
:10276400A309D90483463905CD8EA309D90423804E
:102774000D00C646F3A606800F100000130580FA6C
:1027840003463905930639051D8A63149629733661
:10279400048013768608B2CC0F100000130680FA6A
:1027A40023809D002380CD000F10000003C6060087
:1027B4001376F60D2380C60003C6060013660602D0
:1027C4002380C600835609051166D18E2318D904C7
:1027D400835609052166D18E2318D90423800D0060
:1027E400E646F3A606800F100000130680FA83461F
:1027F400390593F606026388062483463905130CCB
:102804003905A18AFDDA08186123F336048093F6AA
:102814008608B6D00F100000930680FA23809D002E
:102824002380DD000F10000083460C00116693F630
:10283400F60D2300DC0083460C0093E60602230019
:10284400DC0083560905D18E2318D9048356090563
:102854002166D18E2318D90423800D008656F3A651
:1028640006800F100000130680FA8346390593F69C
:1028740006026385062083463905A18AEDFE97E0AA
:10288400FF1FE78000812A8C97E0FF1FE7806080AC
:10289400E30C85FF8356090511664255D18E231832
:1028A400D90439238346390513063905A18AFDDA8B
:1028B400F336048093F68608B6D40F10000093060E
:1028C40080FA23809D002380DD000F1000008346E2
:1028D400060093F6F60D2300D60023800D00A656BD
:1028E400F3A606800F100000835609050346290548
:1028F400D247B376DA003306CA021305800C935527
:10290400F6413696330DF6408257333CD6002E9C62
:102914003336A601330CFC40330CCC40330885031A
:1029240092564E86B335A5033305A503C295EF1021
:10293400523463468001631E0C16630C0D16130695
:1029440015003335A6002E959356F5013696B3350A
:10295400D600AA959396F50105828585D18E6346A6
:10296400B000639D051A638B061A0356C9021582CB
:102974003305D6003336C500B2956348B000639181
:1029840005241306F00F637DA622894663F35615CA
:1029940093078008F3B7078093F78708BED60F1014
:1029A400000037170040930770052300F7049307CE
:1029B40080FA2300F7040F1000008356C7028967CA
:1029C4008117D58FC207C1832316F702230007049A
:1029D400B657F3A707800F100000FA506A54DA5470
:1029E4004A59BA592A5A9A5A0A5BFA4B6A4CDA4C2F
:1029F4004A4DBA4D296182801308F5FF3335A8008A
:102A0400FD152E951356F5013298B336C800AA96D3
:102A140051B1F336048093F68608B6CA0F1000004D
:102A240023809D002380AD000F10000083463905EC
:102A3400CD8EA309D90423800D00D646F3A60680C3
:102A44000F10000035BBF336048093F68608B6CE2B
:102A54000F10000023809D002380CD000F10000084
:102A64008346390593E60602A309D90423800D00A1
:102A7400F646F3A606800F10000095BBF3360480DB
:102A840093F68608B6D20F10000023809D002380A1
:102A9400CD000F1000008346390593E60602A30912
:102AA400D90423800D009656F3A606800F1000006B
:102AB4006DBB9306F5FF33B5A600FD152E95935512
:102AC400F501AE96B3B5B600AA951396F5018582C5
:102AD40069B5F336048093F68608B6D80F10000063
:102AE400930680FA23809D002380DD000F100000F0
:102AF4008356C9020566011693F6F60FD18EC206F7
:102B0400C1822316D90223800D00C656F3A606807F
:102B14000F100000850A93FAFA0F49B233E6B600A3
:102B240045C20356C9023305D0403338A000B3056B
:102B3400B040B385054115826345B000D1E16371AE
:102B4400A608894663F0560593078008F3B7078003
:102B540093F78708BEDA0F100000B7170040130779
:102B640070052380E704130780FA2380E7040F101D
:102B7400000003D7C7027D8B2396E7022380070456
:102B8400D65781BDF336048093F68608B6DC0F1061
:102B94000000930680FA23809D002380DD000F103F
:102BA40000008356C9020566011693F6F60FD18E0E
:102BB400C206C1822316D90223800D00E656B9B796
:102BC40093078008F3B7078093F78708BEDE0F10DA
:102BD400000037170040930770052300F70493079C
:102BE40080FA2300F7040F1000000356C7029397DE
:102BF4005600B297C207C1832316F70223000704C5
:102C0400F657C1BB914763EEB702173702001307AB
:102C1400273E8A05BA959C41BA978287B717004028
:102C240003A7470B1345F5FF698F23AAE70A03A7F8
:102C3400070B698F23A8E70A03A7070A798D23A046
:102C4400A70A8280B717004083A6470B1347F5FFF6
:102C5400F98E23AAD70A83A6070B558D23A8A70AA2
:102C640083A6070A758F23A0E70A8280B71700405E
:102C740003A7470B498F23AAE70A03A7070B1345AA
:102C8400F5FF45BFB717004083A6470B1347F5FF71
:102C9400758F23AAE70A03A7070A598D4DB7B717FB
:102CA400004003A7470B498FEDB7914763EEB70286
:102CB40017370200130707358A05BA959C41BA975E
:102CC4008287B717004003A7470D1345F5FF698FA7
:102CD40023AAE70C03A7070D698F23A8E70C03A712
:102CE400070C798D23A0A70C8280B717004083A618
:102CF400470D1347F5FFF98E23AAD70C83A6070DBA
:102D0400558D23A8A70C83A6070C758F23A0E70C69
:102D14008280B717004003A7470D498F23AAE70C09
:102D240003A7070D1345F5FF45BFB717004083A65A
:102D3400470D1347F5FF758F23AAE70C03A7070C6C
:102D4400598D4DB7B717004003A7470D498FEDB70D
:102D5400B71700408847420541819377050491EBFA
:102D64009377F5013755E801130505803345F502DE
:102D740082809377050C130700046397E700937729
:102D8400F50137459C1CCDB72165130505D082801C
:102D940037E700E01C435443A183E206D58F1CC1EE
:102DA400FD572320F7182322F7180F100000828004
:102DB40013178500B7E700E023A0E710618123A281
:102DC400A7108280B7F700E08847CC47828081470C
:102DD40037370040A14663C4C7003285828003456B
:102DE400B740E38EA6FE3385F5000345050085074D
:102DF4002304A740CDB797F7FF1F938767749C43BD
:102E040017170020130787653E95636EE500173793
:102E140000201307E77E6368A70017F7FF1F23212D
:102E2400A7723E858280FD57EDBF411122C406C6BC
:102E34002A84393F2947B307E502B2408D83B3D7CB
:102E4400870222449507B3D7E70237370040C20709
:102E5400C1832316F7404101828071654111130536
:102E6400052006C6D937B7370040130770F8238109
:102E7400E7400D47A381E74013070004A380E74020
:102E840005472387E740B240410182809387418907
:102E94009C43411106C691C38297938781899C43C1
:102EA40091C3829703D761809307C01263F7E70445
:102EB40003D581809306B01263E4A6049386018946
:102EC40003A3060063070300B2401305C0124101C7
:102ED40002830507098F3385A740E5473305F502CB
:102EE4004207418309839307F7FF3E953345E50283
:102EF4001375F50FB2404101828013054006DDBF12
:102F04000145CDBF03A84500411126C206C622C40F
:102F14008347180003480800A944A207B3E7070140
:102F2400C2070D68C1871308289063960703854775
:102F34003284EF70B011AA8419ED9387C1889C4341
:102F440099CB03451400034704002205598D13351A
:102F5400150005058297B24022442685924441011A
:102F640082802D453DE7D841411122C426C206C6C0
:102F74008347170003470700B684A207D98F0D675C
:102F8400930697A132846396D702093783C7418099
:102F94006374F5002382A18085472390F40083C7DE
:102FA40041802300F4000145B2402244924441018F
:102FB4008280130787902945E398E7FECC4589472B
:102FC4002390F4000946228597E0FF1FE780E08DF7
:102FD400D9BF828083474500858BADC7011122CCC0
:102FE4002A84035525009385419C06CEEF70D000BA
:102FF400058929C503552400014781460546ED4549
:10300400EF7080392AC61DC997F7FF1F938747FBC6
:1030140083D7A70201462C002314F100854723150A
:10302400F10083C741802300F50003552400EF809D
:10303400805909C5ED452800EF70C04DF240624447
:10304400056182808280416541119385419C7D1593
:1030540006C6EF90C046B24097F6FF1F938646FB24
:103064004146954517F5FF1F130585F541016F90FE
:10307400203A23A6A1888280411122C406C685472E
:1030840009446311F5028347060001442384F1884F
:1030940003C741806378F700170500001305C5F3E3
:1030A400EFB090032285B2402244410182808547DB
:1030B4006301F50209C909476302E5020D47630686
:1030C400E5020945828083C741802380F5000145DC
:1030D40082809387818883C70700C5BF97F7FF1F46
:1030E40083D7A7EE2390F500DDB71387C18003577C
:1030F40007002392E50017F7FF1F130767EC8356B9
:10310400A7020357A7032383F5002390D500239137
:10311400E50075BF411106C6953B83C74180637ABC
:10312400F5002382A180170500001305E5EAEFB03E
:10313400A07AB24001454101828041677917630C4E
:10314400E502411122C406C685472A84639AF50024
:1031540022852244B2409385419C41016F902036E0
:1031640089476396F5008545EFB0807175D1B2400B
:103174002244410182808280CC41411106C63285BD
:1031840003C6150083C5050022064D8E42068D65D3
:103194004186138875A2630C060F6348C80413881C
:1031A40045A26306060B634AC800938535A26309EA
:1031B400B60623900600294679A0138855A2630811
:1031C400060B938565A2E316B6FEC1451D4663EC66
:1031D400E5064546198E63F3C7003E862390C60074
:1031E40097350200938545E489A8138895A2630066
:1031F400060F634E060B1388A5A2630A060F938578
:1032040005A5E318B6FA99451D4663EEE502198E45
:1032140063F3C7003E862390C6009385418131A89D
:103224009D451D4663E1E5022146198E63F3C700FF
:103234003E862390C6009385C189BA9597D0FF1F17
:10324400E780A0660146B240328541018280AD45E7
:103254001D46E3EAE5FE3146198E63F3C7003E8658
:103264002390C600973502009385C5DFF9B7B145B1
:103274001D46E3EAE5FC3546198E63F3C7003E8636
:103284002390C600973502009385C5DE7DB7C145FE
:103294001D46E3EAE5FA4546198E63F3C7003E8608
:1032A4002390C60097350200938545D979B7C14567
:1032B4001D46E3EAE5F84546198E63F3C7003E86EA
:1032C4002390C600973502009385C5DBBDB7C14581
:1032D4001D46E3EAE5F64546198E63F3C7003E86CC
:1032E4002390C60097350200938585D6B9B7B545B6
:1032F4001D46E3EAE5F43946198E63F3C7003E86BA
:103304002390C60097350200938505D13DB797F603
:10331400FF1F9386A6E34146CD4517F5FF1F13050E
:10332400E5CF6F90E00E82809387818B9C4303C727
:10333400C18A83C6318201E781473E85828003D6F4
:1033440007006316A60003C66700E308D6FE7D17D0
:103354001377F70FA107C5B7B2862E86AA8517354E
:1033640002001305E5D66F10321301119305000313
:103374000D4506CEEF30307D930500051145EF3045
:10338400907C9305C0030545EF30F07B8547130619
:10339400F100854513055030A307F100EF80312378
:1033A400F240056182808547631AF50011661306B1
:1033B40086A9894503C5D18A6F10303389476317BD
:1033C400F500894503C5D18A6F10B05C82808547BA
:1033D4006398F50019E22383B18A238EC18A82801F
:1033E40009476399E50019E62383F18A03D5418AE5
:1033F4006F00700782809387018B9C43011122CC5C
:1034040006CE2E8481CB9C4791C78297F2406244BA
:10341400056182806C0013057040EF60916A32464A
:1034240081452285EF70C12BD5B701119397050112
:1034340026CA06CE22CC4AC84EC652C4C187AE8420
:1034440063D7070803C5D18AEF1080482A8439C995
:10345400034705009307000D6313F7048347250012
:103464004547638BE7046547639BE7021735020012
:10347400130585C2EF105202130954009309B400D6
:10348400173A0200130A8AC28345090052850509C6
:10349400EF109200E39A29FF2945EF10F2032285E9
:1034A400EF10E0362165258DF2406244D244424952
:1034B400B249224A0561828003466500834575004E
:1034C40017350200130505BFEF10027DC9BF93F73E
:1034D400150085C317F6FF1F1306C6C897F5FF1F0F
:1034E400938585C703C5D18AEF80C15A13C51400DB
:1034F40065BF93F725000145C5DB2939116613061D
:1035040086A9894503C5D18AEF10301E13C524004E
:1035140061BF797126D24ECE06D622D44AD052CC7F
:103524009147AA84AE896314F50483D7A5001306D2
:10353400E1008545130550302392F18A23070100E9
:103544002383018AEF80B1089387018B9C4391C741
:10355400DC4781C7CE8526858297B250225423A4A6
:10356400918A02599254F249624A456182801387D2
:10357400818A1843E31AF7FC854503D5418A753ED1
:10358400854503D5418AEF00C073C16703DA418AD8
:10359400F917631BFA0205449305E1001305504132
:1035A4002383018AA381818223070100EF60715183
:1035B4008347E100B1E303C7C18B9147E316F7F8F2
:1035C4006D33238E018A49B79387818B03A9070042
:1035D40003C4C18A69D00355290011C99305E100C8
:1035E400EF70F00609C54C455285EF80506D7D148F
:1035F4001374F40F2109F9BF9387418B9C4383C74C
:103604004700898BCDDB9305000A0D45EF30B0539D
:103614009305000A1145EF30105381450545EF30FD
:1036240090521306E10085451305503023078100AD
:10363400EF80E17949B7011117050000130525DF73
:1036440006CE22CCEF1070711384D18A85471306FD
:10365400F10085452300A40013054041A307F100B0
:10366400EF70612F7D55EF60701B7D55EF80106208
:103674007939D13AC12317050000130505D3D53A8A
:1036840017050000130565CAE12B034504008545B1
:10369400EF10E065F24062440561828023A8B18A9C
:1036A40023AAA18A828023ACB18A2386A18A82803C
:1036B4009387818A9C43797106D622D426D24AD034
:1036C4004ECE52CC1147639BE70483C7618A4144C1
:1036D40081CF9387818B8043B284B68983C7C18AA3
:1036E40003C7318299EB55442285B2502254925437
:1036F4000259F249624A4561828083464400639AD2
:10370400A600834654006396B60083466400638033
:10371400E606FD1793F7F70F2104E9B7094741447B
:10372400E384E7FC2C001305504123040100EF60FF
:103734005139834781008DCB930500020D45EF304D
:103744009040930500031145EF30F03F9545054542
:10375400EF30703F85473000854513055030230412
:10376400F100EF80C16649B709314144B5BF035543
:10377400240093056100EF70806D35D54C4503D569
:10378400418AEF706007058939DD139904011359E3
:103794000901014781464A86ED4503D5418A035A0A
:1037A4000400EF60703F2AC64D441DDD2686CE8599
:1037B400231441012315210197D0FF1FE780E00E58
:1037C40001462C0003D5418AEF70F05F2A84E30D93
:1037D40005F0ED452800EF60F05339B7C8410111F9
:1037E40022CC06CE3284034615000345050022068A
:1037F400498E19CB0D681308B8A42D456309060733
:10380400F2406244056182800D651308D5A463000B
:103814000603130825A2630C060175781308E85CF7
:103824003298420813580801854863EE080303D50B
:10383400A50036C632C4CD3CB24615C19387018B70
:103844009C4322468345550003A30700A287624494
:10385400F24003454500368785460561028323907F
:103864000600014571BF1308B5A46317060303D608
:10387400A1821D45E376C7F8198E63D3C7003E863F
:10388400CC452390C60042064182BA95228597D042
:10389400FF1FE7808001F1B79307A5A46318F60022
:1038A40091472390F6001146CC45CDB793078590F8
:1038B4006317F60089472390F6000946F5B7930786
:1038C400E5A4631AF600DC452390160183C70700BC
:1038D4002300F40079B713057590E314A6F8D9BF53
:1038E400011122CC06CE26CA4AC82317D1002D4482
:1038F40029EBDC412E89B28403C4170083C7070077
:1039040022045D8C8D679386D7A46306D4009386C6
:1039140027A3631FD4020355A900393419E10144D4
:103924000DA09387018B9C438345550003454500B7
:1039340003A807002286A6871307E10081460298A0
:103944002A842285F2406244D2444249056182803D
:103954009386C7A46314D4028357E1000547354412
:10396400E391E7FE0345060013040008E3EBA7FC1C
:103974009387018B9C43DC43829755B793862790AA
:10398400631AD4028356E1008547EF60306C2A84C1
:103994004DF99387818B8356A9009C4303C7C18A41
:1039A4003DDF03D627006302D6047D171377F70F94
:1039B400A107FDB79387E7A4E313F4F68357E10067
:1039C40005473544E39FE7F6034506001304000862
:1039D400E3E9A7F6DC452380A7009387018B9C438A
:1039E4003335A0000905DC4341BF1387018B18431D
:1039F40003C5470083C5570083C714000328070085
:103A040003C70400A2078946D98FC207C1870547A7
:103A14006383E7008D460D66A6871307E10013064E
:103A24002690029839BF411122C441641305F4FF62
:103A34009385419E06C626C24AC0EF8050281305CE
:103A4400F4FF9385419D97E4FF1F93846472EF8094
:103A5400102797F6FF1F9386A68B4146E9452685D6
:103A6400EF80101BCC4C2A890945EFF04FE41387F3
:103A7400818383460700938741830347170003C666
:103A840017001384419F83C50700A306E40083D76E
:103A9400A40CA30EE40003D7A416A302C400A30A33
:103AA400C40003D6A4132310F400231CE40083D71A
:103AB400A40D1387018303D5A4102318C40003574E
:103AC400070003D6A4142311F40085472303F4004C
:103AD4002306D4002307F4002319C400230ED400C2
:103AE4002302B4002314A400230AB4002315040001
:103AF400230B0400231D0400230F04002312E402FB
:103B040003D7A4189385C1A12303F4022310E4026C
:103B1400231104020D45EFF08FD9A2851D456136AE
:103B2400B24022444A8592440249410182808D6711
:103B3400138527A36301A6049387D7A40145631EB5
:103B4400F6008947639CF500854735456397F60081
:103B5400834707002381F18C014582808D472945E5
:103B6400E39DF5FE85473545E399F6FE8347070057
:103B74002380F18CD5B785473545E390F6FE83471E
:103B84000700A38FF18AC9BF8D67138527A3630834
:103B9400A6029387D7A46317F6028947639BF500AF
:103BA40083C7218C2300F70085472390F600014545
:103BB40082808D476398F50083C7018CE5B783C77E
:103BC400F18BCDB723900600DDB70145828025E354
:103BD40003A84500AE888347180003480800A207DD
:103BE400B3E707010D68930EF8A4639AD7039147CE
:103BF4003548639FF60203A5C8004111B2851146FA
:103C040006C697D0FF1FE78040CA9387018D9C4367
:103C140005458297B240014842854101828093085C
:103C2400289029486396170185476F6030422D48D4
:103C340042858280416541119385C1A27D1506C6E6
:103C4400EF80F007B24097E6FF1F93862673414644
:103C5400994517E5FF1F1305656C41016F80407B93
:103C640023A8A18C828001119385C1A222CC06CE07
:103C74002A84EF607038058929C1014781460546C9
:103C8400ED452285EF6040712AC605C997E7FF1FFD
:103C94009387C76883D7A70401462C002314F10037
:103CA40085472315F100230005002285EF70B0112C
:103CB40009C5ED452800EF60F005F2406244056156
:103CC400828041677917630CE502411122C406C65C
:103CD40085472A84639AF50022852244B24093855D
:103CE400C1A241016F80A07D89476396F500854597
:103CF400EFA0103975D1B240224441018280828004
:103D040011456FE06FE6411193962500AA852D4574
:103D140006C697C0FF1FE780407AB24001454101C3
:103D24008280011122CC06CE3714004026CA4AC82C
:103D34004EC652C483447405034AB40583498405BA
:103D440003499405EFE02FBD8347A40593F4F40FD2
:103D5400137AFA0F93E71700230DF40493F9F90F7C
:103D64001379F90FB717004003C7A705058B6DFF3B
:103D740003D5C705A38D4705238C3705A38C2705D9
:103D8400A38B9704F2406244D2444249B249224A86
:103D94000561828041119397050122C406C6C1873B
:103DA4002E8463DD0700EF00B03219C1EF00302626
:103DB4002165218DB24022444101828093F7150090
:103DC40013C51500E5FB93F7250013C52500FDF386
:103DD4009397250163D00702EF10F14E153737F69C
:103DE4000200130606E0896503C5818DEF10E00F1C
:103DF4000965C1B7939715010145E3DD07FA172556
:103E040002001305A537EF00727D13060064916567
:103E140003C5818DEF10600D116561BF2D71232ADB
:103E24009110FD74E98C232C811023282111232661
:103E340031112A84AE893289930600100A86A68538
:103E44002D45232E111097C0FF1FE780006713151F
:103E5400440151810A0513962900CA850A9597D011
:103E6400FF1FE78080A4A68585660146254597C087
:103E7400FF1FE78080640A86A68593060010294503
:103E840097C0FF1FE78060638320C1110324811161
:103E940083244111032901118329C11015618280F2
:103EA400B7F7070003C70701411106C622C426C29B
:103EB4004AC0A547631AF7009537B240224492449A
:103EC400024901454101828013942500AA84328964
:103ED400A286AA850146254597C0FF1FE780E05DBD
:103EE400A2864A86A685294597C0FF1FE780E05C25
:103EF400E9B71D714946972502009385A523172527
:103F040002001305E55E86CE97D0FF1FE78020A749
:103F140001E91725020013052523EF00326C01A0E7
:103F2400B7F600E0795798CAFD57DCCA0567B7E7CA
:103F340000E023A0E7101306F00290C223A0E718C4
:103F44000F10000017D7FF1F130787F323AAE18C74
:103F54004157A38AE740130600048145080897D017
:103F6400FF1FE780A09B97F7FF1F938727813EC819
:103F7400896793870780231AF1009D673ECCB707B2
:103F84000105938707103ECEED472310F1028547C4
:103F94002301F10297070000938727D7BEC2970732
:103FA4000000938727F0BEC48567938757D12312F7
:103FB400F10297F7FFFF938727E13ED8B7F5070093
:103FC40097070000938727D63EDC814697070000B9
:103FD400938747D33000E10519453EDE97C0FF1FA4
:103FE400E780A04D18088147994630003E96034665
:103FF400060085070507A30BC700E398D7FEC24751
:1040040091C70357410185676373F70001A08307D4
:10401400410263D7070493078008F3B7078093F737
:1040240087083EC40F100000B7170040130770053F
:104034002380E704130780FA2380E7040F100000AD
:10404400B847B706100013670718B8C79853558FB9
:1040540098D323800704A247F3A707800F1000001A
:104064000808EF104053AA8501C91725020013055B
:10407400E50EEF00724201A0F640256182804111F5
:1040840017050000130545D106C622C4EF10E04C05
:104094001384818D2300A4001928034504002244BD
:1040A400B24013060032896541016F0010647971D2
:1040B40006D613078008F337078093F787083EC2B4
:1040C4000F100000B7170040930570052380B70454
:1040D400130680FA2380C7040F10000083C6F7027A
:1040E40093F6A60FA387D702238007049246F3A66C
:1040F40006800F10000073370780137787083AC4CF
:104104000F1000002380B7042380C7040F100000A1
:1041140003C7F70213672700A387E7022380070476
:10412400A247F3A707800F1000000545EFE0EF81D9
:10413400C13E814701478146054685451305407EBA
:10414400EFE08F8568005146814597C0FF1FE780E7
:10415400E07CB707C0A83EC8B787E803938707D0B9
:104164003ECA680097C7FF1F9387E7253EC6EF1036
:104174006076B2504561828093F715009DCB371766
:1041840000408327870C4111856622C406C6B58F7B
:104194002324F70C03D6018E2E8411C6854503C54E
:1041A400C183EF00905413451400B24022444101EE
:1041B400828001458280411117050000130505FC2A
:1041C40006C6EF108039238EA1828D450565EFE088
:1041D400DFAD371700408327C70CB2408566D58F03
:1041E4002326F70C41018280411106C622C485476B
:1041F4006315F502854503C5C183EF009079371730
:1042040000402390018E8327C70C8566D58F232613
:10421400F70CB24022444101828065FD2E8403C51F
:10422400C1838545EF00F0761306006419E0130698
:1042340000142244B2402390C18E03C5C183854536
:1042440041016F00904A82803D897D15954763EE58
:10425400A710172702001307A7F20A053A951C4175
:10426400011106CEBA9782872C0013054030EF70F7
:1042740051222C000545EF50E021172502001305BB
:10428400A5F4EF00B2353DA003C725008D476313A5
:10429400F70217250200130525F4EF0032342C0031
:1042A4001305504123040100EF60A10183458100FF
:1042B40001451D3FF2400561828003C725009547F3
:1042C400E31AF7FE83D7A5000D6691451306062071
:1042D40003C521852398F184EF003041172502009E
:1042E400130585F0EF00922F81450545D9B703C723
:1042F40025008D47E310F7FC17250200130585EF11
:1043040049B783C72500114717250200130505F097
:104314006381E70419476397E70283C5650017259E
:104324000200130565F0EF003217854501456D3D28
:10433400854730008545130550302304F100EF70A4
:1043440011298DBF1547E395E7FE172502001305D4
:1043540065EFEF00B228E9BF83C5250017250200E9
:104364001305C5EFEF005213B1B78280411106C6A1
:1043740022C43A883E8795EA32830D661306D6A492
:104384002A8EAE88834608006319C3008947639662
:10439400F50085473544639EF6022244B2401A86EE
:1043A400C685728541016FF08FF885476398F600E2
:1043B4002244B240C28641016FF00FFD8947014497
:1043C4006399F6001306401F894503C52185EF0054
:1043D400D0312285B2402244410182804111939719
:1043E400050122C406C6C1872E8463DD070003C508
:1043F4002185F92911C121292165218DB240224449
:104404004101828093F7150013C51500E5FB93F76E
:10441400450099CF83C721851307401F8146214654
:10442400A14503D50185EF70416213454400F9B7F6
:1044340093F785009DC3014789460946814503D505
:104444000185EF70F14CAA85172502001305C5D428
:10445400EF0092041345840055B793F725000145F6
:10446400D1DF112C4146894503C52185EF00F02792
:104474001345240061B7011117050000130545F623
:1044840006CE22CC26CAEF10400D93842185054424
:104494002380A40030008545130550302304810097
:1044A400EF70F112138601849D4513056030EF709F
:1044B400111217E6FF1F130626EEF545130570309B
:1044C400EF70F11017260200130686CED54501457C
:1044D400EF5070238D47300091451305704023033E
:1044E400F10023028100A303810002C4A30201009E
:1044F400EF6061465000854513050040EF60A1451B
:1045040013065100854513051040EF60C14413069E
:104514006100854513052040EF60E14313067100F7
:10452400854513055040EF600143B707090099071B
:104534003EC4B7072C01D1073000A14511453EC642
:10454400EF50701C99473000854505452304F10060
:10455400EFE09FB2EFF02FCD97E5FF1F9385C5E203
:1045640013858184EFF08F9303C504008545EF0024
:104574000078F2406244D244056182800111230430
:10458400A1002305B100340021468545014506CE2E
:10459400A3040100A305010002C6EFF06F91F240ED
:1045A40005618280C16703D50185F917630EF500A3
:1045B400411106C6EF709133B2400146814513059F
:1045C400004141016F60213982804111130580044B
:1045D40006C697C0FF1FE78040AD3717004083270A
:1045E400870A8D451305002093E707202324F70A43
:1045F400EFE04FE1EFE07F8617250200130545EF5A
:10460400EF00C27DEFF0FF8E2928EFF05FA7EF7077
:104614007130EFF04F824536B93D97C0FF1FE780F8
:1046240060DD411126C28564138504C38D4506C629
:1046340022C4EFE02FDD371400408327840A138758
:1046440004C38545D98F2324F40A0D65EFE08FDB7D
:10465400854513050009EFE04FE58D450565EFE05D
:10466400CFE48327C40CB240C58F2326F40C224424
:10467400924441018280397122DC4ED652D456D202
:104684005AD06AC806DE26DA4AD85ECE62CC66CA3A
:104694006EC6972A0200938A6ABF97E9FF1F93891F
:1046A400A9D10144130A1004371D0040130BC0079D
:1046B40083C60A0083A74A00639C460B8326CD0A5F
:1046C400D58F2326FD0A01000100010001001729EE
:1046D40002001309A9B9CE8D81443D4C930CD00737
:1046E400914B834609008327490063994609832631
:1046F4004D0AF58FB386840093F6F60FB337F000B6
:1047040063948609BDEF83D7218E636AFB00850716
:10471400C207C1832391F18E6393970161358504A8
:1047240093F4F40F2109910DE39D74FB83C70A00F0
:1047340083A64A006399470983278D0AD58F2324CA
:10474400FD0A11041374F40FC147A10AC109E3114E
:10475400F4F6F2506254D2544259B259225A925A3F
:10476400025BF24B624CD24C424DB24D21618280CD
:104774008326CD0CD58F2326FD0CB1B783264D0C93
:104784008DBF2391018E61BF83C62D00638AF6021B
:1047940083C63D000547850693F6F60FA381DD0029
:1047A400E37FD7F62381FD00A3810D0099E783C53C
:1047B4000D0003C51D00D9339DB781450145E5BFF3
:1047C400A3810D00A9BF83278D0CD58F2324FD0C55
:1047D4008DBF23AC05FE1C4191E7010001000CC113
:1047E4008280BA8703A787FF6DFF23ACB7FE828060
:1047F400184183A785FF6319B7001CC1FD5723AC7B
:1048040005FE238FF5FE8280232CF6FEC5BF4111E1
:1048140022C437E400E026C204403707200006C65D
:10482400F98C2320E4180F10000009E923209410C8
:104834001545B24022449244410182800347E5FF7A
:104844009307F00F6306F700232094101145D5B7A2
:1048540097D0FF1FE78040C8014523209410D1BFA3
:10486400411126C2B7E400E04AC003A90400B70717
:10487400200006C622C43379F90023A0F4180F10CF
:10488400000009E923A02411B240224492440249C1
:10489400410182809565938505D0C98D2A842105BF
:1048A400C2054205C181418197D0FF1FE780A0B3B3
:1048B40001CDFD5723200500231285002303F500B5
:1048C40023A024112105C9B723A0241101456DBFDC
:1048D4000111B7E700E04AC803A907004EC637072D
:1048E400200006CE22CC26CAAA893379E90023A067
:1048F400E7180F10000097F7FF1F9387E76C8043BA
:104904008144014619E499E8A1654E85EF007008D9
:1049140005A08347E4FF6399370385CCA68517F583
:10492400FF1F1305656AE93565D0A1654E85C1266B
:10493400F2406244B7E700E023A0271126854249EC
:10494400D244B2490561828091E02286032484FF27
:1049540055BFA284E5BF41114AC037E900E022C433
:10496400032409003707200006C626C2798C2320B9
:10497400E9180F10000089E523208910154515A0BA
:10498400AA8497F7FF1F83C777642E8563F5F40025
:10499400894763EE9700A53DB7E700E023A08710A1
:1049A4000D45B2402244924402494101828083A7CA
:1049B40085FF99E703C7E5FF9307F00F6308F70046
:1049C400B935B7E700E023A087104DBF238F95FECC
:1049D40017F5FF1F1305455FED3BA1652685012EE5
:1049E40001452320891075BF97F7FF1F23AE075C8D
:1049F400828097F7FF1F9387A7629C4399E33E85C4
:104A0400828003D727006316B70003C70700E308B3
:104A1400A7FEDC47E5B7A5C1011106CE22CC26CA04
:104A24008147C14633D7F540058B29C312053E950E
:104A340031473305E50217F7FF1F1307A762044345
:104A440005443314F4002EC642044180AA949C40C9
:104A5400C8408297B24523A0040023A20400A18D7C
:104A6400F2406244D2442E85056182808507E39B2F
:104A7400D7FA0144EDB72E858280C9C1797122D459
:104A840006D626D24AD04ECE01444147B3D78540FC
:104A9400858BA5C31205314722953305E50297F7A7
:104AA400FF1F9387275C03A907008544B394840000
:104AB400C204C180BE892A990327090011C70325AE
:104AC40049002EC60297B24531473304E40283A756
:104AD40009003E941C4489E723200900232209008D
:104AE400B2502254A58D02599254F2492E85456143
:104AF40082800504E31CE4F88144DDB72E858280BE
:104B04004111B7E700E022C480433707200006C6FE
:104B140026C2798C23A0E7180F10000097F7FF1F17
:104B2400938747509C539384418599C782979C40AF
:104B34003E9523AAA18439A097F7FF1F9387C74DF9
:104B44009C43EDF78840B74703009387D73F33056D
:104B5400F502B7A72600938737ECB24092443E95FE
:104B640023AAA184B7E700E023A0871022444101CF
:104B740082800111B7E700E022CC80434AC837079E
:104B8400200006CE26CA2A892E86798C23A0E7180F
:104B94000F100000131506019305F004418132C67D
:104BA40097D0FF1FE7802084AA8419C53246CA859E
:104BB40097C0FF1FE78060CFB7E700E023A087100E
:104BC400F240624426854249D2440561828079716B
:104BD400B7E700E022D480433708200006D626D267
:104BE4004AD04ECE52CC56CA5AC85EC662C433743A
:104BF400040123A007190F10000005E123A087106A
:104C04000945B250225492540259F249624AD24A96
:104C1400424BB24B224C4561828097F7FF1F93872A
:104C2400A73F9C43BA8A368AB28B2E8BAA89829775
:104C340097F7FF1F9387074398433E898144B14602
:104C4400C147338CD40233068701104241EAC1655F
:104C5400938505F0414597C0FF1FE780C07805E1C3
:104C640097F7FF1F9387073C9C5B81C781451145DC
:104C74008297B7E700E023A087102D4559B797F72F
:104C8400FF1F9387E739984331E797F7FF1F23A95D
:104C9400A738230005008327090005473317970029
:104CA40023260500232475012311E5002322550141
:104CB400E29723A0370123A2670123A457016304C9
:104CC4000A0023009A00B7E700E023A087100145FB
:104CD4000DBF3E875C47F5FF48C765BF8504E39277
:104CE400F4F6B7E700E023A08710214519BFB7E722
:104CF40000E09843B706200023A0D718758F0F1043
:104D0400000097F6FF1F83C6762C6373D50217F64F
:104D1400FF1F1306A63093161500084236958356D6
:104D24000500D58D2310B50023A0E710014582802E
:104D340023A0E7100D458280B7E700E09843B7064B
:104D4400200023A0D718758F0F10000097F6FF1FBF
:104D540083C6D6276375D50217F6FF1F1306062CE4
:104D640093161500084293C5F5FF36958356050042
:104D7400F58D2310B50023A0E7100145828023A000
:104D8400E7100D458280011137E700E026CA04438D
:104D9400B706200006CE22CC4AC84EC652C4F58CB3
:104DA4002320D7180F100000130705FF1377F70F00
:104DB400FD4763E5E70AB146B306D50297F7FF1F3F
:104DC4009387472A984336971C43C9CB135A450007
:104DD40005443D893315A4001314050141802E892F
:104DE4005285A2853931AA8929CDA2855285A93750
:104DF40097F7FF1F938747229C43829797F7FF1FDC
:104E040083D78727338727032A84814613060064C0
:104E1400B3B7270313050732B335E500BE95EFF0AA
:104E2400D122B307850097F6FF1F938666243E8739
:104E3400D44263E4A70063E4D7003387D74023A4B4
:104E4400E900B7E700E023A097100145F24062446F
:104E5400D2444249B249224A05618280B7E700E060
:104E640023A097100945DDB70111B7E700E026CA72
:104E740084433707200006CE22CC4AC84EC6F98C9C
:104E840023A0E7180F100000BD4763EAA7043147C9
:104E94003307E50297F7FF1F9387C71C9C43BA9714
:104EA4009C4395CF05443314A400420441802E89C9
:104EB4000145A285EFF0FFB3AA8911C5A28501457A
:104EC400A53D23A42901B7E700E023A097100145DD
:104ED400F2406244D2444249B24905618280B7E754
:104EE40000E023A097100945E5B779714AD037E966
:104EF40000E026D283240900B707200006D622D476
:104F04004ECE52CC56CA5AC85EC6FD8C2320F91820
:104F14000F10000097F7FF1F83C7570B637AF50044
:104F240097F7FF1F9387470F83AB070063970B0027
:104F3400B7E700E023A09710A9A017FBFF1F130BEE
:104F44002B13832A4B00B74736FE938707C82E8A54
:104F540097F5FF1F83D54512BE9AB387C5022A84ED
:104F6400B2898146B3B5C50213850732B337F5005C
:104F740013060064BE95EFF0510D63F0AA022320DE
:104F840099100145B250225492540259F249624A8E
:104F9400D24A424BB24B45618280829B97F5FF1FF8
:104FA40083D5850DB38735032A89130600648146AA
:104FB400B3B5350313850732B337F500BE95EFF06B
:104FC400D108B30725013E8903274B0063E4A700FA
:104FD40063E4E7003389E740D2852285EFF07FA1BF
:104FE40009C923242501B7E700E023A0971005454C
:104FF40051BF936504F0C205C181414597C0FF1FAD
:10500400E780603E19E997F7FF1F9387A7019C5B30
:1050140085D3A2851145829721BF97F7FF1F9387F8
:1050240027009C4385E797F7FF1F23ABA7FE85471F
:10503400232605002324250123114501230085008F
:10504400A300F5002322050079BFBA87D84775FF6E
:10505400C8C7F1BF7971B7E700E026D284433707A8
:10506400200006D622D44AD04ECE52CC56CA5AC8B4
:105074005EC662C466C26AC0F98C23A0E7180F102A
:1050840000003DC14144B689B28A2E8A2A89B14CB6
:1050940017FBFF1F130B0BFD054D130C0003B30B84
:1050A400940303270B005E971C43A5E39375F40058
:1050B400B315BD0013554440C2055686C18113750E
:1050C400F50F253539C183270B00DE9723A027016F
:1050D40023A247016384090023808900B7E700E025
:1050E40023A09710014521A023A097100945B25091
:1050F400225492540259F249624AD24A424BB24B68
:10510400224C924C024D456182800504E31984F9D6
:10511400B7E700E023A097102145D1BF0111B7E7FD
:1051240000E026CA844322CC4AC84EC63707200072
:1051340006CE2A84AE893289F98C23A0E7180F1091
:10514400000065332285CE85EFF0BF8A2A8405C529
:1051540097F5FF1F83D545F2B38725031306006433
:105164008146B3B5250313850732B337F500BE95E1
:10517400EFF0A16D48C013351400F2406244B7E764
:1051840000E023A097104249D244B2490E050561BC
:1051940082800111B7E700E04AC803A9070022CCC6
:1051A4004EC63707200006CE26CAAA892E84337934
:1051B400E90023A0E7180F100000EFF09F83AA84F2
:1051C40019C123110500A2854E85BD3697F7FF1F2F
:1051D40083C7C7DF639B370197F7FF1F83D787E335
:1051E4005D8C97F7FF1F239787E2B7E700E023A0C2
:1051F4002711014591E01945F2406244D2444249E5
:10520400B2490561828001114AC837E900E022CC25
:1052140003240900B707200006CE26CA4EC67D8C9B
:105224002320F9180F1000009307F00263E8A70485
:10523400B147B304F50297F9FF1F9389A9E283A745
:105244000900A6979C439DCB9377F5008545B395BC
:10525400F500C205C18111812D3F83A709000145D5
:10526400A69723A0070023A2070023208910F24059
:105274006244D2444249B24905618280B7E700E002
:1052840023A087100945E5B74111B7E700E026C21E
:10529400844306C622C437072000F98C23A0E718EC
:1052A4000F100000EFF0EFF419E90145B240224479
:1052B400B7E700E023A0971092444101828097F75A
:1052C400FF1F938767D59C430045829797F7FF1F7D
:1052D400938707DA6368A402D843B74636FE9386F9
:1052E40006C83305A4403697E371E5FC1307006450
:1052F400B335E50203D6870081463305E502EFF0B6
:10530400C1546DB7D8433A94C1BF411122C426C2D7
:1053140017F4FF1F1304C4D597F4FF1F938404CB21
:105324009448584097F7FF1F938707CF06C69C43BE
:105334006393E60882975440B74736FE938707C8BD
:10534400B6973387A7003A856364F7006364D70090
:105354003305D74097F4FF1F938484EADC5081CF50
:1053640097F7FF1F938787F194433707CDFF7D1786
:105374009C46F98F9CC611E1484097F7FF1F93871D
:1053840067CADC53829719E5DC508DC3EF00F10A3C
:10539400EFF0F05ADC5099CB97F7FF1F938707EE95
:1053A4009843B70633001C47D58F1CC7B24022442C
:1053B400924441018280829794485840B387A60062
:1053C4003E8563E4D700E3E7E7F83385E74059B760
:1053D400411106C697F7FF1F23AAA7C80295B2403A
:1053E40097F7FF1F23A0A7C0014541018280994779
:1053F40063E9B7008A0597F7FF1F9387E7BFBE9558
:1054040088C1828097F7FF1F23A0A7C611C58547CF
:1054140017F7FF1F2301F7C08280411171468145B0
:1054240017F5FF1F130545BD06C697F7FF1F23A9F0
:1054340007BE97F7FF1F23AB07C297F7FF1F23ADE4
:1054440007BC97F7FF1F238807BC97F7FF1F23ADFF
:1054540007C097B0FF1FE780604C130680028145A8
:1054640017F5FF1F130585B697B0FF1FE780004BA4
:10547400EF60115497F7FF1F9387C7BA03C5C7039B
:1054840083C7D70385453E958D473305F502390516
:105494001375F50F97F7FF1F238BA7B299473305B1
:1054A400F5021305052497C0FF1FE780C0F317F723
:1054B400FF1F2329A7BA59CD994717F6FF1F0346A3
:1054C40006B13306F60281451306062497B0FF1F82
:1054D400E780C04497F7FF1F9387C7B89C4393871F
:1054E400072417F7FF1F2327F7B017F7FF1F0347FA
:1054F40007AE0A07BA9717F7FF1F2321F7B2EFF099
:10550400AFCEE12997F7FF1F9387C7AE944397F770
:10551400FF1F83C7B7AB13972700369717F6FFFF14
:105524001306E65510C3138717001377F70F0A07FE
:10553400369717F6FFFF1306464E10C3138737003E
:10554400890793F7F70F8A0797F5FF1FA380E5A84C
:10555400B69790C3B2404101828097F7FF1F83C77B
:10556400F7A617F7FF1F034787A663F3E70217F7AA
:10557400FF1F130727A818439386170017F6FF1F6A
:10558400A306D6A493962700369708C33E85828047
:105594009307F00FE5BF1C416384071641777D8FA5
:1055A400B70600208947631ED71403574500630AD2
:1055B4000714411122C419462A849305F00F61058A
:1055C40006C697B0FF1FE780E04305478D47630495
:1055D400E5121C4481CB58589947630E0710185C98
:1055E400630B071013060004814517F5FF1F13050D
:1055F40065A397B0FF1FE780603213060004A285FD
:1056040017F5FF1F130505A297B0FF1FE780E029D8
:1056140097F7FF1F83D7C7A117F7FF1F130787A0AB
:1056240099E79307001097F6FF1F2393F6A097F7C7
:10563400FF1F83C707A091E7854797F6FF1F238ABB
:10564400F69E97F7FF1F83D7E79E91E7ED4797F6FE
:10565400FF1F2391F69E97F7FF1F83C7979D91E73E
:10566400954797F6FF1FA386F69C97F7FF1F83C7FE
:10567400879C91E7854797F6FF1F238EF69A97F745
:10568400FF1F83C7579B99E78347F70097F6FF1FD0
:10569400A383F69A97F7FF1F83C7179A81CF93F6D0
:1056A4003700898317F6FF1F230CD69A97F6FF1F3E
:1056B400A388F69A97F7FF1F83C7079891E7D54702
:1056C40097F6FF1F238AF6968347640199E79307A9
:1056D400C00397F6FF1F2382F6961C5791C7829743
:1056E40097F7FF1F2398A78EFD5717F7FF1FA30DEA
:1056F400F7BE25338147B24022443E854101828072
:1057040089473E85828001114EC697F9FF1F938910
:10571400299683A7090006CE22CC26CA4AC852C4B9
:10572400829713090064B335250303DA890081469F
:10573400528633052503EFF0411197F7FF1F938736
:10574400E788804FAA840145630694023385844028
:10575400636E940003A5490052868146B335A902BD
:105764003305A902EFF0610E018D269597F7FF1F0F
:1057740023AA9786F2406244D2444249B249224A5B
:1057840005618280011122CC0A852E844146971539
:1057940002009385E58406CEEFF0A14418080604C0
:1057A4003A94035504FF97F7FF1F83D7078DF24000
:1057B4006244AA9737450F00130505243355F502B3
:1057C4000561828097F7FF1F83D7278B51471D45BB
:1057D400637CF702794719456378F70213072003BE
:1057E40015456373F7021307B0041145637EF70090
:1057F400130740060D456379F7001307600909454F
:105804006374F70013B5B70F8280011122CC06CE62
:105814002A842EC6EFF0CFAEB245F240818D33A577
:10582400A502229562441375F50F0561828001116A
:1058340022CC06CE2A842EC6EFF08FACB245F240BD
:10584400818D33A5A50222956244420541810561FB
:105854008280011122CC06CE2A842EC6EFF04FAAF4
:10586400B245F240818D33B5A502229562440561AB
:10587400828097E7FF1F9387E77A985739CB4111C6
:1058840022C426C206C6BE84029717E7FF1F035729
:1058940067742A8415CBBA876373A700AA87C207E3
:1058A400C183BA866373E400A286C206C182958F5F
:1058B4005147635BF700DC5491C38297EF00A1204A
:1058C40097E7FF1F23988770B24022449244410116
:1058D4008280828097E7FF1F23A6077A97E7FF1F3E
:1058E40093874774DC57011106CEAA8581C72AC65F
:1058F4008297B245CDC19C410545D9CBDC41C9CB8A
:1059040083D78500D1C783D7A500D9C3514617E5EE
:10591400FF1F1305E57597B0FF1FE78000F997E7B0
:10592400FF1F238D077497E7FF1F938767749C43BA
:1059340017E7FF1F2322F76E97E7FF1F83C7F76F51
:105944008DE79307805717E5FF1F0355E57233056D
:10595400F50237460F001306062481468145EFE021
:10596400D16E97E7FF1FA38AA76C17E7FF1F0347B2
:10597400D76CA54763E7E700A94717E7FF1FA30E06
:10598400F76A17050000130545D8EFF07FA4014519
:10599400F2400561828097E7FF1F23A7076497B74A
:1059A400FF1F9387C74417E7FF1F2323F76C7D5717
:1059B40097E7FF1F23A0E76CB7873200938727A1DF
:1059C40097E6FF1F23AAF66A97E7FF1F2388076A53
:1059D400B7C7004023A4E726B9B7011122CC17E4C6
:1059E400FF1F13042464084406CE26CA4AC801E9EA
:1059F4000545F2406244D2444249056182805C58C4
:105A0400E5DB185C75D77000854582971844B2476A
:105A1400E300F7FE9305E00417E5FF1F0355456116
:105A240097C0FF1FE780209C17E7FF1F2320A75C78
:105A340061D117E6FF1F0356A65F9305F00F97B0D9
:105A4400FF1FE780A0ED814417E9FF1F13090958E0
:105A540097E7FF1F83C7E75D0326090263C1F402CA
:105A6400328597C0FF1FE78020A7014597E7FF1FF6
:105A740023AE075697E7FF1F23AC07569DBF97E554
:105A8400FF1F83D5E55AB38795020844185C8981C2
:105A940085043E9508C2029765BF011156C297EA74
:105AA400FF1F938A2A5883A78A0022CC4AC84EC66D
:105AB40006CE26CA52C45AC0AA892E843289638665
:105AC400072203A74A03630907141307F01F636738
:105AD400A71497E4FF1F9384644F03AA0402631777
